{
  "contractName": "Voting",
  "abi": [
    {
      "inputs": [],
      "payable": false,
      "stateMutability": "nonpayable",
      "type": "constructor"
    },
    {
      "anonymous": false,
      "inputs": [
        {
          "indexed": false,
          "internalType": "uint256",
          "name": "id",
          "type": "uint256"
        },
        {
          "indexed": false,
          "internalType": "string",
          "name": "name",
          "type": "string"
        }
      ],
      "name": "CandidateAdded",
      "type": "event"
    },
    {
      "anonymous": false,
      "inputs": [
        {
          "indexed": false,
          "internalType": "address",
          "name": "voter",
          "type": "address"
        },
        {
          "indexed": false,
          "internalType": "uint256",
          "name": "candidateId",
          "type": "uint256"
        }
      ],
      "name": "Voted",
      "type": "event"
    },
    {
      "constant": true,
      "inputs": [],
      "name": "admin",
      "outputs": [
        {
          "internalType": "address",
          "name": "",
          "type": "address"
        }
      ],
      "payable": false,
      "stateMutability": "view",
      "type": "function"
    },
    {
      "constant": true,
      "inputs": [
        {
          "internalType": "uint256",
          "name": "",
          "type": "uint256"
        }
      ],
      "name": "candidates",
      "outputs": [
        {
          "internalType": "uint256",
          "name": "id",
          "type": "uint256"
        },
        {
          "internalType": "string",
          "name": "name",
          "type": "string"
        },
        {
          "internalType": "uint256",
          "name": "voteCount",
          "type": "uint256"
        }
      ],
      "payable": false,
      "stateMutability": "view",
      "type": "function"
    },
    {
      "constant": true,
      "inputs": [],
      "name": "candidatesCount",
      "outputs": [
        {
          "internalType": "uint256",
          "name": "",
          "type": "uint256"
        }
      ],
      "payable": false,
      "stateMutability": "view",
      "type": "function"
    },
    {
      "constant": true,
      "inputs": [
        {
          "internalType": "address",
          "name": "",
          "type": "address"
        }
      ],
      "name": "hasVoted",
      "outputs": [
        {
          "internalType": "bool",
          "name": "",
          "type": "bool"
        }
      ],
      "payable": false,
      "stateMutability": "view",
      "type": "function"
    },
    {
      "constant": false,
      "inputs": [
        {
          "internalType": "string",
          "name": "_name",
          "type": "string"
        }
      ],
      "name": "addCandidate",
      "outputs": [],
      "payable": false,
      "stateMutability": "nonpayable",
      "type": "function"
    },
    {
      "constant": false,
      "inputs": [
        {
          "internalType": "uint256",
          "name": "_candidateId",
          "type": "uint256"
        }
      ],
      "name": "vote",
      "outputs": [],
      "payable": false,
      "stateMutability": "nonpayable",
      "type": "function"
    },
    {
      "constant": true,
      "inputs": [
        {
          "internalType": "uint256",
          "name": "_id",
          "type": "uint256"
        }
      ],
      "name": "getCandidate",
      "outputs": [
        {
          "internalType": "uint256",
          "name": "",
          "type": "uint256"
        },
        {
          "internalType": "string",
          "name": "",
          "type": "string"
        },
        {
          "internalType": "uint256",
          "name": "",
          "type": "uint256"
        }
      ],
      "payable": false,
      "stateMutability": "view",
      "type": "function"
    }
  ],
  "bytecode": "0x608060405234801561001057600080fd5b50336000806101000a81548173ffffffffffffffffffffffffffffffffffffffff021916908373ffffffffffffffffffffffffffffffffffffffff160217905550610abe806100606000396000f3fe608060405234801561001057600080fd5b506004361061007d5760003560e01c80633477ee2e1161005b5780633477ee2e1461012a57806335b8e820146101df578063462e91ec14610294578063f851a4401461034f5761007d565b80630121b93f1461008257806309eef43e146100b05780632d35a8a21461010c575b600080fd5b6100ae6004803603602081101561009857600080fd5b8101908080359060200190929190505050610399565b005b6100f2600480360360208110156100c657600080fd5b81019080803573ffffffffffffffffffffffffffffffffffffffff1690602001909291905050506105c9565b604051808215151515815260200191505060405180910390f35b6101146105e9565b6040518082815260200191505060405180910390f35b6101566004803603602081101561014057600080fd5b81019080803590602001909291905050506105ef565b6040518084815260200180602001838152602001828103825284818151815260200191508051906020019080838360005b838110156101a2578082015181840152602081019050610187565b50505050905090810190601f1680156101cf5780820380516001836020036101000a031916815260200191505b5094505050505060405180910390f35b61020b600480360360208110156101f557600080fd5b81019080803590602001909291905050506106b1565b6040518084815260200180602001838152602001828103825284818151815260200191508051906020019080838360005b8381101561025757808201518184015260208101905061023c565b50505050905090810190601f1680156102845780820380516001836020036101000a031916815260200191505b5094505050505060405180910390f35b61034d600480360360208110156102aa57600080fd5b81019080803590602001906401000000008111156102c757600080fd5b8201836020820111156102d957600080fd5b803590602001918460018302840111640100000000831117156102fb57600080fd5b91908080601f016020809104026020016040519081016040528093929190818152602001838380828437600081840152601f19601f8201169050808301925050505050505091929192905050506107b5565b005b61035761097c565b604051808273ffffffffffffffffffffffffffffffffffffffff1673ffffffffffffffffffffffffffffffffffffffff16815260200191505060405180910390f35b600360003373ffffffffffffffffffffffffffffffffffffffff1673ffffffffffffffffffffffffffffffffffffffff16815260200190815260200160002060009054906101000a900460ff1615610459576040517f08c379a00000000000000000000000000000000000000000000000000000000081526004018080602001828103825260118152602001807f596f7520616c726561647920766f74656400000000000000000000000000000081525060200191505060405180910390fd5b60008111801561046b57506001548111155b6104dd576040517f08c379a00000000000000000000000000000000000000000000000000000000081526004018080602001828103825260118152602001807f496e76616c69642063616e64696461746500000000000000000000000000000081525060200191505060405180910390fd5b6001600360003373ffffffffffffffffffffffffffffffffffffffff1673ffffffffffffffffffffffffffffffffffffffff16815260200190815260200160002060006101000a81548160ff02191690831515021790555060026000828152602001908152602001600020600201600081548092919060010191905055507f4d99b957a2bc29a30ebd96a7be8e68fe50a3c701db28a91436490b7d53870ca43382604051808373ffffffffffffffffffffffffffffffffffffffff1673ffffffffffffffffffffffffffffffffffffffff1681526020018281526020019250505060405180910390a150565b60036020528060005260406000206000915054906101000a900460ff1681565b60015481565b6002602052806000526040600020600091509050806000015490806001018054600181600116156101000203166002900480601f0160208091040260200160405190810160405280929190818152602001828054600181600116156101000203166002900480156106a15780601f10610676576101008083540402835291602001916106a1565b820191906000526020600020905b81548152906001019060200180831161068457829003601f168201915b5050505050908060020154905083565b6000606060006106bf6109a1565b6002600086815260200190815260200160002060405180606001604052908160008201548152602001600182018054600181600116156101000203166002900480601f0160208091040260200160405190810160405280929190818152602001828054600181600116156101000203166002900480156107805780601f1061075557610100808354040283529160200191610780565b820191906000526020600020905b81548152906001019060200180831161076357829003601f168201915b505050505081526020016002820154815250509050806000015181602001518260400151819150935093509350509193909250565b6000809054906101000a900473ffffffffffffffffffffffffffffffffffffffff1673ffffffffffffffffffffffffffffffffffffffff163373ffffffffffffffffffffffffffffffffffffffff161461085a576040517f08c379a0000000000000000000000000000000000000000000000000000000008152600401808060200182810382526022815260200180610a686022913960400191505060405180910390fd5b6001600081548092919060010191905055506040518060600160405280600154815260200182815260200160008152506002600060015481526020019081526020016000206000820151816000015560208201518160010190805190602001906108c59291906109c2565b50604082015181600201559050507fe83b2a43e7e82d975c8a0a6d2f045153c869e111136a34d1889ab7b598e396a3600154826040518083815260200180602001828103825283818151815260200191508051906020019080838360005b8381101561093e578082015181840152602081019050610923565b50505050905090810190601f16801561096b5780820380516001836020036101000a031916815260200191505b50935050505060405180910390a150565b6000809054906101000a900473ffffffffffffffffffffffffffffffffffffffff1681565b60405180606001604052806000815260200160608152602001600081525090565b828054600181600116156101000203166002900490600052602060002090601f016020900481019282601f10610a0357805160ff1916838001178555610a31565b82800160010185558215610a31579182015b82811115610a30578251825591602001919060010190610a15565b5b509050610a3e9190610a42565b5090565b610a6491905b80821115610a60576000816000905550600101610a48565b5090565b9056fe4f6e6c792061646d696e2063616e20706572666f726d207468697320616374696f6ea265627a7a7231582061d950850f282a0d725481711ec396cf0da4a680b6bbae8fe86bfdd73617b38864736f6c63430005100032",
  "source": "pragma solidity ^0.5.16;\n\ncontract Voting {\n    struct Candidate {\n        uint id;\n        string name;\n        uint voteCount;\n    }\n\n    address public admin;\n    uint public candidatesCount;\n\n    mapping(uint => Candidate) public candidates;\n    mapping(address => bool) public hasVoted;\n\n    event CandidateAdded(uint id, string name);\n    event Voted(address voter, uint candidateId);\n\n    modifier onlyAdmin() {\n        require(msg.sender == admin, \"Only admin can perform this action\");\n        _;\n    }\n\n    constructor() public {\n        admin = msg.sender;\n    }\n\n    // Admin adds candidates\n    function addCandidate(string memory _name) public onlyAdmin {\n        candidatesCount++;\n        candidates[candidatesCount] = Candidate(\n            candidatesCount,\n            _name,\n            0\n        );\n        emit CandidateAdded(candidatesCount, _name);\n    }\n\n    // Employee votes\n    function vote(uint _candidateId) public {\n        require(!hasVoted[msg.sender], \"You already voted\");\n        require(\n            _candidateId > 0 && _candidateId <= candidatesCount,\n            \"Invalid candidate\"\n        );\n\n        hasVoted[msg.sender] = true;\n        candidates[_candidateId].voteCount++;\n\n        emit Voted(msg.sender, _candidateId);\n    }\n\n    // Get candidate info\n    function getCandidate(uint _id)\n        public\n        view\n        returns (uint, string memory, uint)\n    {\n        Candidate memory c = candidates[_id];\n        return (c.id, c.name, c.voteCount);\n    }\n}\n",
  "sourcePath": "C:\\Users\\taham\\OneDrive\\Desktop\\Voting-system-production\\blockchain\\contracts\\Voting.sol",
  "compiler": {
    "name": "solc",
    "version": "0.5.16+commit.9c3226ce.Emscripten.clang"
  },
  "schemaVersion": "3.4.16",
  "updatedAt": "2026-01-21T11:39:37.209Z",
  "networkType": "ethereum",
  "devdoc": {
    "methods": {}
  },
  "userdoc": {
    "methods": {}
  }
}